{
  "transactions": [
    {
      "hash": "0x4d0be770bd0b4ff15637d37dc723767fcb319e9174b777870f91113a1f97ed1d",
      "transactionType": "CALL",
      "contractName": null,
      "contractAddress": "0x062618eced9140c206f4240827440b53ad1bb230",
      "function": "diamondCut((address,uint8,bytes4[])[],address,bytes)",
      "arguments": [
        "[(0x230aD1a12896b29d009f8E5D452492b916635BA4, 0, [0x9fff43bb, 0x91d14854, 0x24d7806c, 0x2f2ff15d, 0xd547741f, 0x70480275, 0x1785f53c, 0x75b238fc, 0x23c1a61c, 0xff26e67c, 0x70a4f55c, 0x25b8e7eb]), (0x4842fF88AD518F272F095b947B74a55387D04890, 0, [0x9ce262a1, 0xade2cbc1, 0x2abead7f, 0xd11d498b, 0xab0f2471, 0xf0f3f2c8, 0xe32e723c, 0x3bcff3b0]), (0x187E34a55DC3aB19256B421Cd3d435a70B3F11f9, 0, [0xda651e06, 0x8c590917, 0x5b7baf64, 0xc832b0be, 0xe081dbf9, 0xe36465a3, 0x8f8e42f6, 0xeb5cea23]), (0x8244f8E2ECE7D0761D9F778F08FA3602e7574608, 0, [0x9f2bad71, 0x46e04a2f, 0xf0a10137, 0x4867b6db, 0xff44c47c]), (0x1e9227C2b2fbFd1b8DDb342eCAF8EEEA23e1D50d, 0, [0xc4d66de8, 0x4a71d19f, 0x5a400698, 0x2137f089, 0xf3ae70f0, 0x108c8ae4, 0x8de2ad64, 0x52dd4eb1, 0xf2d4e89f, 0x95d57660, 0x04143b1a])]",
        "0x0000000000000000000000000000000000000000",
        "0x"
      ],
      "transaction": {
        "from": "0x16d49c978c2a3061647dd0e027999fe7e6425c8c",
        "to": "0x062618eced9140c206f4240827440b53ad1bb230",
        "gas": "0x22b5b5",
        "value": "0x0",
        "input": "0x1f931c1c000000000000000000000000000000000000000000000000000000000000006000000000000000000000000000000000000000000000000000000000000000000000000000000000000000000000000000000000000000000000000000000920000000000000000000000000000000000000000000000000000000000000000500000000000000000000000000000000000000000000000000000000000000a000000000000000000000000000000000000000000000000000000000000002a0000000000000000000000000000000000000000000000000000000000000042000000000000000000000000000000000000000000000000000000000000005a000000000000000000000000000000000000000000000000000000000000006c0000000000000000000000000230ad1a12896b29d009f8e5d452492b916635ba400000000000000000000000000000000000000000000000000000000000000000000000000000000000000000000000000000000000000000000000000000060000000000000000000000000000000000000000000000000000000000000000c9fff43bb0000000000000000000000000000000000000000000000000000000091d148540000000000000000000000000000000000000000000000000000000024d7806c000000000000000000000000000000000000000000000000000000002f2ff15d00000000000000000000000000000000000000000000000000000000d547741f0000000000000000000000000000000000000000000000000000000070480275000000000000000000000000000000000000000000000000000000001785f53c0000000000000000000000000000000000000000000000000000000075b238fc0000000000000000000000000000000000000000000000000000000023c1a61c00000000000000000000000000000000000000000000000000000000ff26e67c0000000000000000000000000000000000000000000000000000000070a4f55c0000000000000000000000000000000000000000000000000000000025b8e7eb000000000000000000000000000000000000000000000000000000000000000000000000000000004842ff88ad518f272f095b947b74a55387d048900000000000000000000000000000000000000000000000000000000000000000000000000000000000000000000000000000000000000000000000000000006000000000000000000000000000000000000000000000000000000000000000089ce262a100000000000000000000000000000000000000000000000000000000ade2cbc1000000000000000000000000000000000000000000000000000000002abead7f00000000000000000000000000000000000000000000000000000000d11d498b00000000000000000000000000000000000000000000000000000000ab0f247100000000000000000000000000000000000000000000000000000000f0f3f2c800000000000000000000000000000000000000000000000000000000e32e723c000000000000000000000000000000000000000000000000000000003bcff3b000000000000000000000000000000000000000000000000000000000000000000000000000000000187e34a55dc3ab19256b421cd3d435a70b3f11f9000000000000000000000000000000000000000000000000000000000000000000000000000000000000000000000000000000000000000000000000000000600000000000000000000000000000000000000000000000000000000000000008da651e06000000000000000000000000000000000000000000000000000000008c590917000000000000000000000000000000000000000000000000000000005b7baf6400000000000000000000000000000000000000000000000000000000c832b0be00000000000000000000000000000000000000000000000000000000e081dbf900000000000000000000000000000000000000000000000000000000e36465a3000000000000000000000000000000000000000000000000000000008f8e42f600000000000000000000000000000000000000000000000000000000eb5cea23000000000000000000000000000000000000000000000000000000000000000000000000000000008244f8e2ece7d0761d9f778f08fa3602e75746080000000000000000000000000000000000000000000000000000000000000000000000000000000000000000000000000000000000000000000000000000006000000000000000000000000000000000000000000000000000000000000000059f2bad710000000000000000000000000000000000000000000000000000000046e04a2f00000000000000000000000000000000000000000000000000000000f0a10137000000000000000000000000000000000000000000000000000000004867b6db00000000000000000000000000000000000000000000000000000000ff44c47c000000000000000000000000000000000000000000000000000000000000000000000000000000001e9227c2b2fbfd1b8ddb342ecaf8eeea23e1d50d00000000000000000000000000000000000000000000000000000000000000000000000000000000000000000000000000000000000000000000000000000060000000000000000000000000000000000000000000000000000000000000000bc4d66de8000000000000000000000000000000000000000000000000000000004a71d19f000000000000000000000000000000000000000000000000000000005a400698000000000000000000000000000000000000000000000000000000002137f08900000000000000000000000000000000000000000000000000000000f3ae70f000000000000000000000000000000000000000000000000000000000108c8ae4000000000000000000000000000000000000000000000000000000008de2ad640000000000000000000000000000000000000000000000000000000052dd4eb100000000000000000000000000000000000000000000000000000000f2d4e89f0000000000000000000000000000000000000000000000000000000095d576600000000000000000000000000000000000000000000000000000000004143b1a000000000000000000000000000000000000000000000000000000000000000000000000000000000000000000000000000000000000000000000000",
        "nonce": "0xa1",
        "chainId": "0x221"
      },
      "additionalContracts": [],
      "isFixedGasLimit": false
    }
  ],
  "receipts": [
    {
      "status": "0x1",
      "cumulativeGasUsed": "0x192118",
      "logs": [
        {
          "address": "0x062618eced9140c206f4240827440b53ad1bb230",
          "topics": [
            "0x8faa70878671ccd212d20771b795c50af8fd3ff6cf27f4bde57e5d4de0aeb673"
          ],
          "data": "0x000000000000000000000000000000000000000000000000000000000000006000000000000000000000000000000000000000000000000000000000000000000000000000000000000000000000000000000000000000000000000000000920000000000000000000000000000000000000000000000000000000000000000500000000000000000000000000000000000000000000000000000000000000a000000000000000000000000000000000000000000000000000000000000002a0000000000000000000000000000000000000000000000000000000000000042000000000000000000000000000000000000000000000000000000000000005a000000000000000000000000000000000000000000000000000000000000006c0000000000000000000000000230ad1a12896b29d009f8e5d452492b916635ba400000000000000000000000000000000000000000000000000000000000000000000000000000000000000000000000000000000000000000000000000000060000000000000000000000000000000000000000000000000000000000000000c9fff43bb0000000000000000000000000000000000000000000000000000000091d148540000000000000000000000000000000000000000000000000000000024d7806c000000000000000000000000000000000000000000000000000000002f2ff15d00000000000000000000000000000000000000000000000000000000d547741f0000000000000000000000000000000000000000000000000000000070480275000000000000000000000000000000000000000000000000000000001785f53c0000000000000000000000000000000000000000000000000000000075b238fc0000000000000000000000000000000000000000000000000000000023c1a61c00000000000000000000000000000000000000000000000000000000ff26e67c0000000000000000000000000000000000000000000000000000000070a4f55c0000000000000000000000000000000000000000000000000000000025b8e7eb000000000000000000000000000000000000000000000000000000000000000000000000000000004842ff88ad518f272f095b947b74a55387d048900000000000000000000000000000000000000000000000000000000000000000000000000000000000000000000000000000000000000000000000000000006000000000000000000000000000000000000000000000000000000000000000089ce262a100000000000000000000000000000000000000000000000000000000ade2cbc1000000000000000000000000000000000000000000000000000000002abead7f00000000000000000000000000000000000000000000000000000000d11d498b00000000000000000000000000000000000000000000000000000000ab0f247100000000000000000000000000000000000000000000000000000000f0f3f2c800000000000000000000000000000000000000000000000000000000e32e723c000000000000000000000000000000000000000000000000000000003bcff3b000000000000000000000000000000000000000000000000000000000000000000000000000000000187e34a55dc3ab19256b421cd3d435a70b3f11f9000000000000000000000000000000000000000000000000000000000000000000000000000000000000000000000000000000000000000000000000000000600000000000000000000000000000000000000000000000000000000000000008da651e06000000000000000000000000000000000000000000000000000000008c590917000000000000000000000000000000000000000000000000000000005b7baf6400000000000000000000000000000000000000000000000000000000c832b0be00000000000000000000000000000000000000000000000000000000e081dbf900000000000000000000000000000000000000000000000000000000e36465a3000000000000000000000000000000000000000000000000000000008f8e42f600000000000000000000000000000000000000000000000000000000eb5cea23000000000000000000000000000000000000000000000000000000000000000000000000000000008244f8e2ece7d0761d9f778f08fa3602e75746080000000000000000000000000000000000000000000000000000000000000000000000000000000000000000000000000000000000000000000000000000006000000000000000000000000000000000000000000000000000000000000000059f2bad710000000000000000000000000000000000000000000000000000000046e04a2f00000000000000000000000000000000000000000000000000000000f0a10137000000000000000000000000000000000000000000000000000000004867b6db00000000000000000000000000000000000000000000000000000000ff44c47c000000000000000000000000000000000000000000000000000000000000000000000000000000001e9227c2b2fbfd1b8ddb342ecaf8eeea23e1d50d00000000000000000000000000000000000000000000000000000000000000000000000000000000000000000000000000000000000000000000000000000060000000000000000000000000000000000000000000000000000000000000000bc4d66de8000000000000000000000000000000000000000000000000000000004a71d19f000000000000000000000000000000000000000000000000000000005a400698000000000000000000000000000000000000000000000000000000002137f08900000000000000000000000000000000000000000000000000000000f3ae70f000000000000000000000000000000000000000000000000000000000108c8ae4000000000000000000000000000000000000000000000000000000008de2ad640000000000000000000000000000000000000000000000000000000052dd4eb100000000000000000000000000000000000000000000000000000000f2d4e89f0000000000000000000000000000000000000000000000000000000095d576600000000000000000000000000000000000000000000000000000000004143b1a000000000000000000000000000000000000000000000000000000000000000000000000000000000000000000000000000000000000000000000000",
          "blockHash": "0xb29108cc0af8c38fa66361cd072e5ab50aab1e4332c74e5ff1095914470a6fc9",
          "blockNumber": "0x272aae2",
          "transactionHash": "0x4d0be770bd0b4ff15637d37dc723767fcb319e9174b777870f91113a1f97ed1d",
          "transactionIndex": "0x0",
          "logIndex": "0x0",
          "removed": false
        }
      ],
      "logsBloom": "0x00000000000000000000000000000000000000000000000000000000000000000000000000000000000000000080000000000000000000000000000000000000000000000000000000000000000000000000000001000000000800000000000000000000000000000000000000000000000000000000000000000040000000000020000000000008000000000000000000000000000000000000000000000000000000000000000000000000000000000000000000000000000000000000000000000000000000000000000000000000000000000000000000000000000000000000000000000000000000000000000000000000000000000000000000000000",
      "type": "0x0",
      "transactionHash": "0x4d0be770bd0b4ff15637d37dc723767fcb319e9174b777870f91113a1f97ed1d",
      "transactionIndex": "0x0",
      "blockHash": "0xb29108cc0af8c38fa66361cd072e5ab50aab1e4332c74e5ff1095914470a6fc9",
      "blockNumber": "0x272aae2",
      "gasUsed": "0x192118",
      "effectiveGasPrice": "0x5f5e100",
      "from": "0x16d49c978c2a3061647dd0e027999fe7e6425c8c",
      "to": "0x062618eced9140c206f4240827440b53ad1bb230",
      "contractAddress": null
    }
  ],
  "libraries": [],
  "pending": [],
  "returns": {},
  "timestamp": 1744106131,
  "chain": 545,
  "commit": "ee32870"
}